{
  "contractName": "Counter",
  "abi": [
    {
      "inputs": [],
      "stateMutability": "nonpayable",
      "type": "constructor"
    },
    {
      "inputs": [],
      "name": "count",
      "outputs": [
        {
          "internalType": "uint256",
          "name": "",
          "type": "uint256"
        }
      ],
      "stateMutability": "view",
      "type": "function",
      "constant": true
    },
    {
      "inputs": [],
      "name": "increment",
      "outputs": [],
      "stateMutability": "nonpayable",
      "type": "function"
    },
    {
      "inputs": [],
      "name": "decrement",
      "outputs": [],
      "stateMutability": "nonpayable",
      "type": "function"
    },
    {
      "inputs": [],
      "name": "getCount",
      "outputs": [
        {
          "internalType": "uint256",
          "name": "",
          "type": "uint256"
        }
      ],
      "stateMutability": "view",
      "type": "function",
      "constant": true
    }
  ],
  "bytecode": "0x608060405234801561001057600080fd5b50600080819055506102be806100276000396000f3fe608060405234801561001057600080fd5b506004361061004c5760003560e01c806306661abd146100515780632baeceb71461006f578063a87d942c14610079578063d09de08a14610097575b600080fd5b6100596100a1565b6040516100669190610199565b60405180910390f35b6100776100a7565b005b610081610106565b60405161008e9190610199565b60405180910390f35b61009f61010f565b005b60005481565b60008054116100eb576040517f08c379a00000000000000000000000000000000000000000000000000000000081526004016100e290610179565b60405180910390fd5b60016000808282546100fd919061021b565b92505081905550565b60008054905090565b600160008082825461012191906101c5565b92505081905550565b6000610137601f836101b4565b91507f436f6e7461646f723a206e6f20707565646520736572206e6567617469766f006000830152602082019050919050565b6101738161024f565b82525050565b600060208201905081810360008301526101928161012a565b9050919050565b60006020820190506101ae600083018461016a565b92915050565b600082825260208201905092915050565b60006101d08261024f565b91506101db8361024f565b9250827fffffffffffffffffffffffffffffffffffffffffffffffffffffffffffffffff038211156102105761020f610259565b5b828201905092915050565b60006102268261024f565b91506102318361024f565b92508282101561024457610243610259565b5b828203905092915050565b6000819050919050565b7f4e487b7100000000000000000000000000000000000000000000000000000000600052601160045260246000fdfea26469706673582212203e99e95f903c60caf0fc5fe49c1d496ad59bfb85770403378388703439a7496464736f6c63430008000033",
  "immutableReferences": {},
  "source": "// SPDX-License-Identifier: SEE LICENSE IN LICENSE\r\npragma solidity ^0.8.0;\r\n\r\ncontract Counter{\r\n    uint256 public count;\r\n\r\n    constructor(){\r\n        count = 0;\r\n    }\r\n\r\n    function increment() public{\r\n        count += 1;\r\n    }\r\n\r\n    function decrement() public{    \r\n        require(count > 0, \"Contador: no puede ser negativo\");\r\n        count -= 1;\r\n    }\r\n\r\n    function getCount() public view returns(uint256){\r\n        return count;\r\n    }\r\n}",
  "sourcePath": "C:\\Users\\ANDRES\\Desktop\\Blockchain\\blockchain_contract\\contracts\\Counter.sol",
  "compiler": {
    "name": "solc",
    "version": "0.8.0+commit.c7dfd78e.Emscripten.clang"
  },
  "schemaVersion": "3.4.16",
  "updatedAt": "2024-08-30T18:31:41.894Z",
  "networkType": "ethereum",
  "devdoc": {
    "kind": "dev",
    "methods": {},
    "version": 1
  },
  "userdoc": {
    "kind": "user",
    "methods": {},
    "version": 1
  }
}